:100000000C9462000C948A000C948A000C948A0070
:100010000C948A000C948A000C948A000C948A0038
:100020000C948A000C948A000C948A000C94E802C8
:100030000C948A000C948A000C948A000C948A0018
:100040000C949E020C948A000C946C020C94460250
:100050000C948A000C948A000C948A000C948A00F8
:100060000C948A000C948A000000000023002600F3
:10007000290000000000240027002A0000000000E2
:10008000250028002B0004040404040404040202D4
:100090000202020203030303030301020408102007
:1000A0004080010204081020010204081020000012
:1000B0000008000201000003040700000000000027
:1000C0000000C40511241FBECFEFD8E0DEBFCDBFB6
:1000D00011E0A0E0B1E0E0E7FEE002C005900D9283
:1000E000A236B107D9F722E0A2E6B1E001C01D9225
:1000F000AE35B207E1F710E0C2E6D0E004C02197C8
:10010000FE010E942707C136D107C9F70E940F04DC
:100110000C9436070C940000AF92BF92CF92DF92FE
:10012000EF92FF920F931F93CF93DF936C017B01AC
:100130008B01040F151FEB015E01AE18BF08C0173D
:10014000D10759F06991D601ED91FC910190F081B0
:10015000E02DC6010995892B79F7C501DF91CF9173
:100160001F910F91FF90EF90DF90CF90BF90AF90D5
:100170000895FC01538D448D252F30E0842F90E0AD
:10018000821B930B541710F0CF9608950197089592
:10019000FC01918D828D981761F0A28DAE0FBF2F5B
:1001A000B11D5D968C91928D9F5F9F73928F90E0B1
:1001B00008958FEF9FEF0895FC01918D828D981720
:1001C00031F0828DE80FF11D858D90E008958FEF5D
:1001D0009FEF0895FC01918D228D892F90E0805C26
:1001E0009F4F821B91098F739927089581EC91E0AD
:1001F0000E94EA0021E0892B09F420E0822F089573
:1002000080E090E0892B29F00E94F60081110C9487
:1002100000000895FC01A48DA80FB92FB11DA35AA9
:10022000BF4F2C91848D90E001968F739927848F16
:10023000A689B7892C93A089B1898C918370806439
:100240008C93938D848D981306C00288F389E02DDA
:1002500080818F7D80830895EF92FF920F931F938B
:10026000CF93DF93EC0181E0888F9B8D8C8D981369
:100270001AC0E889F989808185FF15C09FB7F89475
:10028000EE89FF896083E889F989808183708064C1
:1002900080839FBF81E090E0DF91CF911F910F910C
:1002A000FF90EF900895F62E0B8D10E00F5F1F4F1B
:1002B0000F731127E02E8C8D8E110CC00FB607FC2A
:1002C000FACFE889F989808185FFF5CFCE010E94B8
:1002D0000A01F1CFEB8DEC0FFD2FF11DE35AFF4F1B
:1002E000F0829FB7F8940B8FEA89FB898081806246
:1002F000CFCFCF93DF93EC01888D8823B9F0AA8903
:10030000BB89E889F9898C9185FD03C0808186FDD0
:100310000DC00FB607FCF7CF8C9185FFF2CF80811F
:1003200085FFEDCFCE010E940A01E9CFDF91CF9189
:100330000895833081F028F4813099F08230A9F05B
:1003400008958730A9F08830C9F08430B1F48091E5
:1003500080008F7D03C0809180008F778093800024
:10036000089584B58F7784BD089584B58F7DFBCFC4
:100370008091B0008F778093B00008958091B00095
:100380008F7DF9CF1F93CF93DF93282F30E0F901B2
:10039000E255FF4F8491F901E656FF4FD491F901E0
:1003A000EA57FF4FC491CC23A9F0162F81110E9468
:1003B0009901EC2FF0E0EE0FFF1FE458FF4FA591DD
:1003C000B4918FB7F894EC91111108C0D095DE2349
:1003D000DC938FBFDF91CF911F910895DE2BF8CF73
:1003E000CF93DF9390E0FC01E656FF4F24918A57AC
:1003F0009F4FFC0184918823D1F090E0880F991FD2
:10040000FC01EE58FF4FA591B491FC01E458FF4F59
:10041000C591D49161110EC09FB7F8948C91E22FD1
:10042000E0958E238C932881E223E8839FBFDF91A0
:10043000CF9108958FB7F894EC91E22BEC938FBF96
:10044000F6CFEBE9F1E010821182128210929E0148
:100450000895CF93DF93FC0101900020E9F73197D5
:10046000AF01481B590BBC0181EC91E00E948C004C
:10047000EC0142E050E062E371E081EC91E00E9427
:100480008C008C0F9D1FDF91CF9108951F920F92CA
:100490000FB60F9211242F933F934F935F936F9357
:1004A0007F938F939F93AF93BF93EF93FF9381ECD1
:1004B00091E00E940A01FF91EF91BF91AF919F914E
:1004C0008F917F916F915F914F913F912F910F90FD
:1004D0000FBE0F901F9018951F920F920FB60F929C
:1004E00011242F938F939F93EF93FF93E091D1016A
:1004F000F091D2018081E091D701F091D80182FD85
:100500001BC090818091DA018F5F8F732091DB0196
:10051000821741F0E091DA01F0E0EF53FE4F958F42
:100520008093DA01FF91EF919F918F912F910F901E
:100530000FBE0F901F9018958081F4CF1F920F92DD
:100540000FB60F9211242F933F938F939F93AF93E6
:10055000BF938091970190919801A0919901B091DA
:100560009A013091740123E0230F2D3758F501963D
:10057000A11DB11D20937401809397019093980160
:10058000A0939901B0939A018091700190917101AB
:10059000A0917201B09173010196A11DB11D8093CC
:1005A000700190937101A0937201B0937301BF9198
:1005B000AF919F918F913F912F910F900FBE0F9010
:1005C0001F90189526E8230F0296A11DB11DD2CFCA
:1005D0001F920F920FB60F9211241F932F933F93E8
:1005E0004F935F936F937F938F939F93AF93BF933B
:1005F000CF93DF93EF93FF9310917601112339F19D
:1006000080916F01811123C02091000130E0F90138
:10061000E255FF4F8491F901E656FF4FD491F9015D
:10062000EA57FF4FC491CC2379F081110E949901C0
:10063000EC2FF0E0EE0FFF1FE859FF4FA591B491AA
:10064000EC91DE2381E009F480E080936E018091DB
:100650006F018823D9F080916D0191E0980F9093FC
:100660006D01811113C060E08AE00E94C20160E068
:100670008CE00E94C20110926F0180916B019091F9
:100680006C01019690936C0180936B0180916D01D8
:10069000883010F010926D01112309F47AC0809116
:1006A0006F01811176C090916E01992329F080919C
:1006B0006A018F5F80936A018091680120916901CE
:1006C000921709F47AC02BE0803508F02DE1820FF3
:1006D000809368019093690120916801203A08F4A1
:1006E00058C0809166019091670196958795909387
:1006F00067018093660130916A01353028F0986077
:100700009093670180936601205A209368011092AC
:100710006A0180917501882309F470C08091650198
:100720008F5F809365018C30A0F1409166015091FC
:100730006701942F9F73E0E1F1E0DF0180E02D91EC
:10074000921721F08F5F8031D1F780E090E1899F8F
:100750009001112486E0569547958A95E1F780E04F
:100760009191491721F08F5F8031D1F780E0822B82
:1007700090919501911125C0809364019CEF980F91
:100780009B31F8F010927501809163018F5F809327
:100790006301FF91EF91DF91CF91BF91AF919F9155
:1007A0008F917F916F915F914F913F912F911F9109
:1007B0000F900FBE0F901F9018958C5E809368016C
:1007C0008BCFE091950191E09E0F90939501F0E021
:1007D000E958FE4F808390919501809164019817AC
:1007E00050F010927501809162018F5F80936201D9
:1007F00081E08093960110926501CBCF80916601D4
:100800009091670188339B4021F681E080937501C8
:10081000109265011092950110929601BACFCF9374
:10082000DF93CDB7DEB72E970FB6F894DEBF0FBEBD
:10083000CDBF789484B5826084BD84B5816084BD69
:1008400085B5826085BD85B5816085BD80916E006E
:10085000816080936E00109281008091810082609F
:1008600080938100809181008160809381008091DC
:1008700080008160809380008091B10084608093CB
:10088000B1008091B00081608093B00080917A00C7
:10089000846080937A0080917A00826080937A00ED
:1008A00080917A00816080937A0080917A008068DC
:1008B00080937A001092C100E091D101F091D201B1
:1008C00082E08083E091CD01F091CE011082E09131
:1008D000CF01F091D0018FEC80831092D901E0918B
:1008E000D501F091D60186E08083E091D301F091AB
:1008F000D401808180618083E091D301F091D401A3
:10090000808188608083E091D301F091D40180815F
:1009100080688083E091D301F091D40180818F7D44
:10092000808385E391E00E9429028CE0809300019E
:100930008EE0E2E0F1E0DE01119601900D928A95E1
:10094000E1F77E0123E0E20EF11C11E0F701619175
:1009500071917F0190E080E00E9499069B01AC01BB
:1009600060E074E284E79BE40E94F1059B01AC0126
:1009700060E070E080E89FE30E94F1059B01AC011C
:100980006FE672E183E897E30E94F1050E94630637
:100990004B015C01F2E08F1A9108A108B1082DEF1C
:1009A00082162FEF9206A104B10408F4E9C01F5F7C
:1009B000173061F6623071058105910550F16115BE
:1009C0007105E1E08E07910520F51092800028E086
:1009D0002093810020918100122B1093810070934D
:1009E00089006093880080916F00826080936F001F
:1009F00061E08CE00E94F00160E0809100010E94C3
:100A0000F00161E08AE00E94F00160E08AE00E946B
:100A1000C20180917601811105C081E08093760149
:100A20001092750100E010E080919601882309F48E
:100A300062C080919501835090910101891710F453
:100A4000809301014091010150E068E771E083EA81
:100A500091E00E942D071092960130919501E7E7F1
:100A6000F1E08FEF9FEF3150E0F02191282760E116
:100A7000269FA00111242427422F50E0892F992777
:100A8000922BBA01A4E075956795AA95E1F78627A0
:100A90009727B3E0440F551FBA95E1F784279527B0
:100AA000E2CF883B904F39F52FB7F89480919701AA
:100AB00090919801A0919901B0919A012FBF8093D4
:100AC0009F019093A001A093A101B093A2018091F6
:100AD0009E0190910101292F30E0E82FF0E0AF0155
:100AE000420F531FE556FE4FA3EAB1E044305105D3
:100AF0007CF10E94210280919E018823E9F080917F
:100B00009F019091A001A091A101B091A201049632
:100B1000A11DB11D2FB7F8944091970150919801F4
:100B20006091990170919A012FBF84179507A607CC
:100B3000B70710F40E9421020115110509F474CFC2
:100B40000E94F600882309F46FCF0E9400006CCF4A
:100B5000AD01435A5140421753071CF44D91419344
:100B6000F7CF890F80939E01833029F680919B01F6
:100B7000813009F0BECF88E491E00E942902B9CF0C
:100B8000163009F022CF45CFE1ECF1E0138212825A
:100B900088EE93E0A0E0B0E084839583A683B783DA
:100BA00084E291E09183808385EC90E0958784874F
:100BB00084EC90E09787868780EC90E0918B808B27
:100BC00081EC90E0938B828B82EC90E0958B848B10
:100BD00086EC90E0978B868B118E128E138E148E7E
:100BE00008950E9405060C94ED060E94E60658F052
:100BF0000E94DF0640F029F45F3F29F00C94D606EE
:100C000051110C9421070C94DC060E94FE0668F337
:100C10009923B1F3552391F3951B550BBB27AA27B5
:100C200062177307840738F09F5F5F4F220F331FEF
:100C3000441FAA1FA9F335D00E2E3AF0E0E832D0B7
:100C400091505040E695001CCAF72BD0FE2F29D0BA
:100C5000660F771F881FBB1F261737074807AB078C
:100C6000B0E809F0BB0B802DBF01FF2793585F4F01
:100C70003AF09E3F510578F00C94D6060C9421076B
:100C80005F3FE4F3983ED4F3869577956795B795E3
:100C9000F7959F5FC9F7880F911D9695879597F9EE
:100CA0000895E1E0660F771F881FBB1F6217730767
:100CB0008407BA0720F0621B730B840BBA0BEE1F7C
:100CC00088F7E09508950E946A066894B1110C9423
:100CD000210708950E94060788F09F5798F0B92FC2
:100CE0009927B751B0F0E1F0660F771F881F991F61
:100CF0001AF0BA95C9F714C0B13091F00E942007DC
:100D0000B1E008950C942007672F782F8827B85FEB
:100D100039F0B93FCCF3869577956795B395D9F7B8
:100D20003EF490958095709561957F4F8F4F9F4FC2
:100D30000895E89409C097FB3EF4909580957095CE
:100D400061957F4F8F4F9F4F9923A9F0F92F96E917
:100D5000BB279395F695879577956795B795F1118C
:100D6000F8CFFAF4BB0F11F460FF1BC06F5F7F4F29
:100D70008F4F9F4F16C0882311F096E911C077233B
:100D800021F09EE8872F762F05C0662371F096E844
:100D9000862F70E060E02AF09A95660F771F881F13
:100DA000DAF7880F9695879597F9089597F99F67D1
:100DB00080E870E060E008959FEF80EC08950024E3
:100DC0000A941616170618060906089500240A94B0
:100DD00012161306140605060895092E0394000C36
:100DE00011F4882352F0BB0F40F4BF2B11F460FFC5
:100DF00004C06F5F7F4F8F4F9F4F089557FD9058EE
:100E0000440F551F59F05F3F71F04795880F97FBCE
:100E1000991F61F09F3F79F0879508951216130688
:100E20001406551FF2CF4695F1DF08C016161706B7
:100E30001806991FF1CF86957105610508940895EC
:100E4000E894BB2766277727CB0197F90895EE0F23
:100E5000FF1F0590F491E02D0994FB01DC0102C015
:100E600001900D9241505040D8F70895F894FFCF6B
:100E70000B1E000001000800400000010004050DE9
:100E80000D0E131516191A1C232526292A2C323467
:100E9000000000002C018C00B9007901EA00C800B4
:100EA000DC000D0A00526563656976657220412099
:100EB00052656164696E6700503120507573682017
:100EC000427574746F6E2069732050726573736518
:020ED0006400BC
:00000001FF
