:100000000C9462000C948A000C948A000C948A0070
:100010000C948A000C948A000C948A000C948A0038
:100020000C948A000C948A000C948A000C9490041E
:100030000C948A000C948A000C948A000C948A0018
:100040000C9446040C948A000C9414040C94EE0353
:100050000C948A000C948A000C948A000C948A00F8
:100060000C9402050C948A00000000002400270074
:100070002A0000000000250028002B0000000000DE
:1000800023002600290004040404040404040202DA
:100090000202020203030303030301020408102007
:1000A0004080010204081020010204081020000012
:1000B0000008000201000003040700000000000027
:1000C0000000210611241FBECFEFD8E0DEBFCDBF58
:1000D00011E0A0E0B1E0EEE3F3E102C005900D9283
:1000E000AA3BB107D9F723E0AAEBB1E001C01D920A
:1000F000AE30B207E1F710E0C2E6D0E004C02197CD
:10010000FE010E949709C136D107C9F70E945A061D
:100110000C949D090C9400000895CF93DF93AC01DB
:10012000E0916102F09162023097F1F090916002EB
:1001300080915F029817C0F090E0292F30E02617D9
:10014000370754F4D901A354BE4F240F351FE901DA
:1001500028812C939F5FF1CF1092600260935F0221
:10016000CB01DF91CF910994DF91CF910895AF92A8
:10017000BF92CF92DF92EF92FF920F931F93CF9394
:10018000DF936C017B018B01040F151FEB015E01F6
:10019000AE18BF08C017D10759F06991D601ED918B
:1001A000FC910190F081E02DC6010995892B79F72A
:1001B000C501DF91CF911F910F91FF90EF90DF90DC
:1001C000CF90BF90AF900895FC01538D448D252FA3
:1001D00030E0842F90E0821B930B541710F0CF96E1
:1001E000089501970895FC01918D828D981761F013
:1001F000A28DAE0FBF2FB11D5D968C91928D9F5F2A
:100200009F73928F90E008958FEF9FEF0895FC0108
:10021000918D828D981731F0828DE80FF11D858DBB
:1002200090E008958FEF9FEF0895FC01918D228D4E
:10023000892F90E0805C9F4F821B91098F739927D3
:10024000089585E692E00E94150121E0892B09F4CA
:1002500020E0822F089580E090E0892B29F00E9411
:10026000210181110C9400000895FC01A48DA80FB8
:10027000B92FB11DA35ABF4F2C91848D90E00196E8
:100280008F739927848FA689B7892C93A089B18908
:100290008C91837080648C93938D848D981306C0A9
:1002A0000288F389E02D80818F7D80830895EF920D
:1002B000FF920F931F93CF93DF93EC0181E0888F20
:1002C0009B8D8C8D98131AC0E889F989808185FFF0
:1002D00015C09FB7F894EE89FF896083E889F98992
:1002E00080818370806480839FBF81E090E0DF9194
:1002F000CF911F910F91FF90EF900895F62E0B8DE7
:1003000010E00F5F1F4F0F731127E02E8C8D8E11A1
:100310000CC00FB607FCFACFE889F989808185FF08
:10032000F5CFCE010E943501F1CFEB8DEC0FFD2F03
:10033000F11DE35AFF4FF0829FB7F8940B8FEA89C3
:10034000FB8980818062CFCFCF93DF93EC01888DD2
:100350008823B9F0AA89BB89E889F9898C9185FD40
:1003600003C0808186FD0DC00FB607FCF7CF8C91CE
:1003700085FFF2CF808185FFEDCFCE010E94350150
:10038000E9CFDF91CF910895833081F028F4813057
:1003900099F08230A9F008958730A9F08830C9F02B
:1003A0008430B1F4809180008F7D03C08091800003
:1003B0008F7780938000089584B58F7784BD0895EA
:1003C00084B58F7DFBCF8091B0008F778093B00094
:1003D00008958091B0008F7DF9CFCF93DF93282FC0
:1003E00030E0F901E255FF4F8491F901E656FF4FE5
:1003F000D491F901EA57FF4FC491CC23A1F08111A8
:100400000E94C401EC2FF0E0EE0FFF1FE458FF4FF5
:10041000A591B491EC91ED2381E090E009F480E0A6
:10042000DF91CF91089580E090E0FACF1F93CF93B2
:10043000DF93282F30E0F901E255FF4F8491F90155
:10044000E656FF4FD491F901EA57FF4FC491CC23F0
:10045000A9F0162F81110E94C401EC2FF0E0EE0FDD
:10046000FF1FEE58FF4FA591B4918FB7F894EC9110
:10047000111108C0D095DE23DC938FBFDF91CF919F
:100480001F910895DE2BF8CFCF93DF9390E0FC010E
:10049000E656FF4F24918A579F4FFC018491882391
:1004A000D1F090E0880F991FFC01E859FF4FA5910A
:1004B000B491FC01EE58FF4FC591D49161110EC06B
:1004C0009FB7F8948C91E22FE0958E238C9328812E
:1004D000E223E8839FBFDF91CF9108958FB7F8940F
:1004E000EC91E22BEC938FBFF6CF3FB7F89480915D
:1004F000520290915302A0915402B091550226B538
:10050000A89B05C02F3F19F00196A11DB11D3FBF4B
:10051000BA2FA92F982F8827BC01CD01620F711D1A
:10052000811D911D42E0660F771F881F991F4A9514
:10053000D1F708958F929F92AF92BF92CF92DF92A0
:10054000EF92FF924B015C010E9475026B017C01EE
:100550000E9475026C197D098E099F09683E7340DF
:1005600081059105A8F321E0821A9108A108B1083C
:1005700088EEC80E83E0D81EE11CF11C81149104A2
:10058000A104B10429F7FF90EF90DF90CF90BF90C6
:10059000AF909F908F90089585ED8093BC008091DF
:1005A000BC0084FDFCCF10925C0208952091FD01F7
:1005B000260F3327331F21323105ECF420915C02E2
:1005C000FC0190E080E0243069F082E00895A09181
:1005D000FD012191AC0143525E4FA40FB52FB11D17
:1005E0002C930196861798F38091FD01680F609314
:1005F000FD0180E0089581E008950895E091600292
:1006000080915F02E81730F4F0E0E354FE4F808100
:1006100090E008958FEF9FEF089590916002809190
:100620005F022FEF3FEF981748F4E92FF0E0E35413
:10063000FE4F208130E09F5F90936002C9010895D2
:1006400082E093E00E940D03909364028093630222
:10065000089580915F0290916002891B990B089523
:10066000CF93DF93CB01EA01642F0E94D602CE0123
:10067000DF91CF910895CF93DF931F92CDB7DEB76F
:10068000698361E0CE0101960E94D60281E090E08C
:100690000F90DF91CF91089590E080E00895CF937F
:1006A000DF938093BA016093BB017093BC0180918A
:1006B0004C028111FCCF8DE0809308018AE1809388
:1006C00009012AEB31E0C0E0D1E081EB9AE6D901E3
:1006D000ED919D014E2F4827B0E14B9FB0011124B1
:1006E0004627642F70E0892F9927942BAB01F4E003
:1006F00055954795FA95E1F784279527A3E0660F6E
:10070000771FAA95E1F786279727AE2FB0E044E040
:10071000B595A7954A95E1F7AD5ABE4F4C914A87DA
:10072000EF70F0E0ED5AFE4F40814B87229641E09A
:100730002D3B340761F680959095FC0124E0F695F9
:10074000E7952A95E1F7EF70FF27ED5AFE4F2081DC
:1007500020931001FC01EF70FF27ED5AFE4F20811E
:1007600020931101FC01EF2FFF27E295EF70ED5A66
:10077000FE4F208120931201E92FFF27EF70FF2702
:10078000ED5AFE4F80818093130184E180934902EA
:1007900010924A021092460210924B0261E08AE0E7
:1007A0000E94160281E080934C0280914C028111DC
:1007B000FCCF69E070E080E090E0DF91CF910C9495
:1007C0009A02FC0101900020E9F73197AF01481B24
:1007D000590BBC0185E692E00C94B7001F920F9272
:1007E0000FB60F9211242F933F934F935F936F9304
:1007F0007F938F939F93AF93BF93EF93FF9385E680
:1008000092E00E943501FF91EF91BF91AF919F91CE
:100810008F917F916F915F914F913F912F910F90A9
:100820000FBE0F901F9018951F920F920FB60F9248
:1008300011242F938F939F93EF93FF93E091750271
:10084000F09176028081E0917B02F0917C0282FD42
:100850001BC0908180917E028F5F8F7320917F02F9
:10086000821741F0E0917E02F0E0EB59FD4F958F49
:1008700080937E02FF91EF919F918F912F910F9026
:100880000FBE0F901F9018958081F4CF1F920F928A
:100890000FB60F9211242F933F938F939F93AF9393
:1008A000BF9380914E0290914F02A0915002B0915F
:1008B000510230914D0223E0230F2D3758F5019658
:1008C000A11DB11D20934D0280934E0290934F02C3
:1008D000A0935002B0935102809152029091530222
:1008E000A0915402B09155020196A11DB11D8093B3
:1008F000520290935302A0935402B0935502BF91B9
:10090000AF919F918F913F912F910F900FBE0F90BC
:100910001F90189526E8230F0296A11DB11DD2CF76
:100920001F920F920FB60F9211241F932F933F9394
:100930004F935F936F937F938F939F93AF93BF93E7
:10094000CF93DF93EF93FF9380914C02882319F1AB
:1009500080914B0291E0980F90934B0281111BC044
:10096000C0914A021091440180914902C81768F170
:1009700060E08AE00E94160260E0812F0E94160269
:1009800010924C02809147029091480201969093F8
:1009900048028093470280914B02883010F01092F9
:1009A0004B02FF91EF91DF91CF91BF91AF919F915A
:1009B0008F917F916F915F914F913F912F911F91F7
:1009C0000F900FBE0F901F901895EC2FF0E0E050A5
:1009D000FF4F608120914602D1E0D20FD0934602B2
:1009E00081E090E001C0880F2A95EAF76823812F03
:1009F0000E941602D630A8F210924602CF5FC09332
:100A00004A02C9CF1F920F920FB60F9211242F9353
:100A10003F934F935F936F937F938F939F93AF9386
:100A2000BF93EF93FF938091B900887F803609F4DC
:100A30004AC0F0F5883209F4A7C018F5803109F4EE
:100A40009BC0B8F4882309F4F9C0883009F494C035
:100A5000FF91EF91BF91AF919F918F917F916F9196
:100A60005F914F913F912F910F900FBE0F901F906C
:100A70001895883109F488C0803251F7809320029C
:100A800014C0803409F49DC040F48033B9F3883336
:100A9000F9F68093200285ECB0C0803509F485C05A
:100AA000883509F496C0883499F60E94CC02D0CFDC
:100AB000883909F48CC038F5883729F050F4883625
:100AC00011F0803729F683E080935C0210921F02B8
:100AD00057C0883809F47BC0803919F0803809F094
:100AE000B7CF80911F02803208F071C0E0911F02E1
:100AF00081E08E0F80931F028091BB00F0E0E150F7
:100B0000FE4F80833DC0803B39F0E0F4803A09F429
:100B100079C0883A09F09CCF84E080935C021092FF
:100B2000FE011092FD01E0915802F09159020995E1
:100B30008091FD0181110FC081E08093FD01109231
:100B4000DD0109C0803C09F4A6CF883C09F4A3CF9D
:100B5000883B09F07DCFE091FE0181E08E0F80930C
:100B6000FE01F0E0E352FE4F80818093BB00909144
:100B7000FE018091FD0129C0809143028093BB005A
:100B800085EC8093BC0064CF909142028091410239
:100B9000981758F5E091420281E08E0F809342024F
:100BA000F0E0EF5DFD4F8081E9CFE091420281E00E
:100BB0008E0F809342028091BB00F0E0EF5DFD4F0D
:100BC000808390914202809141029817C8F285E893
:100BD000D8CFE091420281E08E0F80934202809153
:100BE000BB00F0E0EF5DFD4F808380915B028111DF
:100BF0005CCF81E080935A0284EA8093BC0010921B
:100C00005C0226CF85EC8093BC0010925C02809140
:100C10001F02803230F4E0911F02F0E0E150FE4FFD
:100C2000108260911F0270E0E0915602F09157022D
:100C30008FEF91E0099510921F020ACF10922002C7
:100C400034CFE5E6F2E01382128288EE93E0A0E072
:100C5000B0E084839583A683B78327E631E03183B0
:100C6000208325EC30E03587248724EC30E037877B
:100C7000268720EC30E0318B208B21EC30E0338B69
:100C8000228B22EC30E0358B248B26EC30E0378B46
:100C9000268B118E128E138E148EE2E0F3E01382F7
:100CA000128284839583A683B78389E791E0918339
:100CB00080830895CF93DF93CDB7DEB7A1970FB6AA
:100CC000F894DEBF0FBECDBF789484B5826084BD3A
:100CD00084B5816084BD85B5826085BD85B5816040
:100CE00085BD80916E00816080936E0010928100BE
:100CF0008091810082608093810080918100816079
:100D00008093810080918000816080938000809139
:100D1000B10084608093B1008091B00081608093C5
:100D2000B00080917A00846080937A0080917A008C
:100D3000826080937A0080917A00816080937A004B
:100D400080917A00806880937A001092C10060E000
:100D500084E00E94440260E083E00E94440260E07C
:100D600082E00E9444021092600210925F02109290
:100D70005E0210925D0210925C0281E080935B0241
:100D800010925A0261E082E10E94160261E083E162
:100D90000E9416028091B9008E7F8093B9008091E5
:100DA000B9008D7F8093B90088E48093B80085E412
:100DB0008093BC008CE890E0909359028093580295
:100DC0008DE890E0909357028093560282E18093E1
:100DD000BA0080E293E09093620280936102E09116
:100DE0007502F091760282E08083E0917102F091C9
:100DF00072021082E0917302F09174028FEC808392
:100E000010927D02E0917902F0917A0286E080836F
:100E1000E0917702F0917802808180618083E09197
:100E20007702F0917802808188608083E091770278
:100E3000F0917802808180688083E0917702F09160
:100E4000780280818F7D808387E891E00E94E103B2
:100E500086E991E00E94E1038CE0809344018EE0FA
:100E6000E5E4F1E0DE01119601900D928A95E1F73B
:100E70007E0123E0E20EF11C11E0F7016191719116
:100E80007F0190E080E00E94E7089B01AC0160E0F8
:100E900074E284E79BE40E943F089B01AC0160E0A0
:100EA00070E080E89FE30E943F089B01AC016FE681
:100EB00072E183E897E30E943F080E94B1082B018A
:100EC0003C01F2E04F1A5108610871082DEF4216FB
:100ED0002FEF52066104710408F4CDC01F5F173074
:100EE00061F6623071058105910550F1611571055A
:100EF000E1E08E07910520F51092800028E0209314
:100F0000810020918100122B109381007093890041
:100F10006093880080916F00826080936F0061E031
:100F2000809144010E94440260E08BE00E944402F0
:100F300061E08AE00E94440260E08AE00E941602BA
:100F40008AE0482E512C612C712C00E010E089E9D8
:100F500091E00E94E103C0906302D09064020D2CE6
:100F6000000CEE08FF08F7FE70C06DE285E692E027
:100F70000E94570122273327A9012C193D094E0948
:100F80005F0919A2CE0181967C01CA01B901A301B2
:100F900092010E947509605DF70162937F0121153E
:100FA00031054105510589F7E114F10419F0C70134
:100FB0000E94E10380EB91E00E94E10386E991E069
:100FC0000E94E10386E991E00E94E10384E00E942F
:100FD000ED015C0183E00E94ED016C0182E00E9462
:100FE000ED017C01AA94AB2841F4609163027091F9
:100FF000640281E090E00E944F03CA94CD2841F43E
:10100000609163027091640282E090E00E944F035D
:10101000EA94EF2841F4609163027091640283E0E6
:1010200090E00E944F0368EE73E080E090E00E9441
:101030009A020115110509F48ACF0E942101882323
:1010400009F485CF0E94000082CFA701960119A262
:10105000CE0181967C01CA01B901A30192010E94CF
:101060007509605DF70162937F0121153105410526
:10107000510589F799CF163009F03ECF61CF0E9414
:1010800053080C943B090E94340958F00E942D0922
:1010900040F029F45F3F29F00C94240951110C947D
:1010A0006F090C942A090E944C0968F39923B1F343
:1010B000552391F3951B550BBB27AA27621773077E
:1010C000840738F09F5F5F4F220F331F441FAA1F12
:1010D000A9F335D00E2E3AF0E0E832D091505040CE
:1010E000E695001CCAF72BD0FE2F29D0660F771F7C
:1010F000881FBB1F261737074807AB07B0E809F062
:10110000BB0B802DBF01FF2793585F4F3AF09E3FE6
:10111000510578F00C9424090C946F095F3FE4F3B7
:10112000983ED4F3869577956795B795F7959F5F29
:10113000C9F7880F911D9695879597F90895E1E075
:10114000660F771F881FBB1F621773078407BA07D4
:1011500020F0621B730B840BBA0BEE1F88F7E0952F
:1011600008950E94B8086894B1110C946F0908950D
:101170000E94540988F09F5798F0B92F9927B751CA
:10118000B0F0E1F0660F771F881F991F1AF0BA952B
:10119000C9F714C0B13091F00E946E09B1E0089512
:1011A0000C946E09672F782F8827B85F39F0B93F04
:1011B000CCF3869577956795B395D9F73EF49095DE
:1011C0008095709561957F4F8F4F9F4F0895E8945C
:1011D00009C097FB3EF490958095709561957F4F7F
:1011E0008F4F9F4F9923A9F0F92F96E9BB2793952D
:1011F000F695879577956795B795F111F8CFFAF43D
:10120000BB0F11F460FF1BC06F5F7F4F8F4F9F4F6D
:1012100016C0882311F096E911C0772321F09EE8CB
:10122000872F762F05C0662371F096E8862F70E031
:1012300060E02AF09A95660F771F881FDAF7880F0B
:101240009695879597F9089597F99F6780E870E0DC
:1012500060E008959FEF80EC089500240A9416162C
:10126000170618060906089500240A941216130694
:10127000140605060895092E0394000C11F4882322
:1012800052F0BB0F40F4BF2B11F460FF04C06F5F3E
:101290007F4F8F4F9F4F089557FD9058440F551F14
:1012A00059F05F3F71F04795880F97FB991F61F0E8
:1012B0009F3F79F087950895121613061406551F5F
:1012C000F2CF4695F1DF08C0161617061806991FCB
:1012D000F1CF86957105610508940895E894BB27C0
:1012E00066277727CB0197F90895A1E21A2EAA1B4A
:1012F000BB1BFD010DC0AA1FBB1FEE1FFF1FA217C6
:10130000B307E407F50720F0A21BB30BE40BF50BC2
:10131000661F771F881F991F1A9469F7609570954B
:10132000809590959B01AC01BD01CF010895EE0F12
:0E133000FF1F0590F491E02D0994F894FFCF73
:10133E002A2A2A2A2A2A382C00000000000000003F
:10134E00000000000000000000000000000000008F
:10135E00000000000000000000000000000000007F
:10136E00000000000000000000000000000000006F
:10137E00000000000C000001000800400000010009
:10138E0004050D0D0E131516191A1C232526292AD0
:10139E002C3234000000005701B700E400A4011500
:1013AE0001F3000701000000003B0330034C03FD76
:1013BE000229030D03FE024E6F6465203220526532
:1013CE006164696E67000D0A0054656D7065726127
:1013DE00747572652052656365697665643A20009E
:0A13EE002043656C6369757300000D
:107E0000112484B714BE81FFF0D085E080938100F7
:107E100082E08093C00088E18093C10086E0809377
:107E2000C20080E18093C4008EE0C9D0259A86E02C
:107E300020E33CEF91E0309385002093840096BBD3
:107E4000B09BFECF1D9AA8958150A9F7CC24DD24C4
:107E500088248394B5E0AB2EA1E19A2EF3E0BF2EE7
:107E6000A2D0813461F49FD0082FAFD0023811F036
:107E7000013811F484E001C083E08DD089C08234E0
:107E800011F484E103C0853419F485E0A6D080C0E4
:107E9000853579F488D0E82EFF2485D0082F10E0AE
:107EA000102F00270E291F29000F111F8ED06801E7
:107EB0006FC0863521F484E090D080E0DECF843638
:107EC00009F040C070D06FD0082F6DD080E0C81688
:107ED00080E7D80618F4F601B7BEE895C0E0D1E017
:107EE00062D089930C17E1F7F0E0CF16F0E7DF06D8
:107EF00018F0F601B7BEE89568D007B600FCFDCFD4
:107F0000A601A0E0B1E02C9130E011968C91119780
:107F100090E0982F8827822B932B1296FA010C0160
:107F200087BEE89511244E5F5F4FF1E0A038BF0790
:107F300051F7F601A7BEE89507B600FCFDCF97BE46
:107F4000E89526C08437B1F42ED02DD0F82E2BD052
:107F50003CD0F601EF2C8F010F5F1F4F84911BD097
:107F6000EA94F801C1F70894C11CD11CFA94CF0C13
:107F7000D11C0EC0853739F428D08EE10CD085E9AC
:107F80000AD08FE07ACF813511F488E018D01DD067
:107F900080E101D065CF982F8091C00085FFFCCF94
:107FA0009093C60008958091C00087FFFCCF809118
:107FB000C00084FD01C0A8958091C6000895E0E648
:107FC000F0E098E1908380830895EDDF803219F02E
:107FD00088E0F5DFFFCF84E1DECF1F93182FE3DFCA
:107FE0001150E9F7F2DF1F91089580E0E8DFEE27F6
:047FF000FF270994CA
:027FFE00040479
:0400000300007E007B
:00000001FF
