:100000000C9462000C948A000C948A000C948A0070
:100010000C948A000C948A000C948A000C948A0038
:100020000C948A000C948A000C948A000C94A50409
:100030000C948A000C948A000C948A000C948A0018
:100040000C945B040C948A000C9429040C94030413
:100050000C948A000C948A000C948A000C948A00F8
:100060000C94EC040C948A0000000000240027008B
:100070002A0000000000250028002B0000000008D6
:10008000000201000003040700000000000000005F
:1000900000000000230026002900040404040404D6
:1000A0000404020202020202030303030303010227
:1000B00004081020408001020408102001020408F6
:1000C0001020500611241FBECFEFD8E0DEBFCDBFF9
:1000D00011E0A0E0B1E0E8E5F4E102C005900D9286
:1000E000A837B107D9F722E0A8E7B1E001C01D9217
:1000F000A23FB207E1F710E0C2E6D0E004C02197CA
:10010000FE010E94240AC136D107C9F70E948B065E
:100110000C942A0A0C94000020913A0281E02132CA
:1001200008F044C0809116028111FCCF8091390201
:1001300092E09093160291E0909315029FEF9093B6
:1001400014021092130220931202A9E1B2E0E2EF2E
:10015000F1E090E0291331C01092F1019091F1018A
:10016000880F892B8093F1018091F001813049F54E
:100170001092F0018091F1018093BB008091BC004E
:1001800083FDF8CF85EC8093BC008091160282300D
:10019000E1F3809114028F3FB1F08091140280321C
:1001A000A1F080911402803391F084E01092180243
:1001B00010923A021092170208953D9131939F5F79
:1001C000C9CF85EEE0CF80E0F1CF82E0EFCF83E0D2
:1001D000EDCF08950895AF92BF92CF92DF92EF9244
:1001E000FF920F931F93CF93DF936C017B018B01E1
:1001F000040F151FEB015E01AE18BF08C017D10731
:1002000059F06991D601ED91FC910190F081E02DBA
:10021000C6010995892B79F7C501DF91CF911F910F
:100220000F91FF90EF90DF90CF90BF90AF90089527
:10023000FC01538D448D252F30E0842F90E0821BEC
:10024000930B541710F0CF96089501970895FC0171
:10025000918D828D981761F0A28DAE0FBF2FB11DC9
:100260005D968C91928D9F5F9F73928F90E0089521
:100270008FEF9FEF0895FC01918D828D981731F0DB
:10028000828DE80FF11D858D90E008958FEF9FEF2F
:100290000895FC01918D228D892F90E0805C9F4F05
:1002A000821B91098F73992708958BE392E00E9436
:1002B000490121E0892B09F420E0822F089580E094
:1002C00090E0892B29F00E94550181110C940000C7
:1002D0000895FC01A48DA80FB92FB11DA35ABF4FDB
:1002E0002C91848D90E001968F739927848FA68935
:1002F000B7892C93A089B1898C91837080648C9389
:10030000938D848D981306C00288F389E02D808137
:100310008F7D80830895EF92FF920F931F93CF9369
:10032000DF93EC0181E0888F9B8D8C8D98131AC030
:10033000E889F989808185FF15C09FB7F894EE8917
:10034000FF896083E889F989808183708064808374
:100350009FBF81E090E0DF91CF911F910F91FF90BF
:10036000EF900895F62E0B8D10E00F5F1F4F0F7367
:100370001127E02E8C8D8E110CC00FB607FCFACF22
:10038000E889F989808185FFF5CFCE010E94690156
:10039000F1CFEB8DEC0FFD2FF11DE35AFF4FF082F3
:1003A0009FB7F8940B8FEA89FB8980818062CFCF59
:1003B000CF93DF93EC01888D8823B9F0AA89BB899C
:1003C000E889F9898C9185FD03C0808186FD0DC087
:1003D0000FB607FCF7CF8C9185FFF2CF808185FFA8
:1003E000EDCFCE010E946901E9CFDF91CF91089551
:1003F000833081F028F4813099F08230A9F008959B
:100400008730A9F08830C9F08430B1F48091800041
:100410008F7D03C0809180008F7780938000089546
:1004200084B58F7784BD089584B58F7DFBCF80918F
:10043000B0008F778093B00008958091B0008F7DD9
:10044000F9CF1F93CF93DF93282F30E0F901E458C1
:10045000FF4F8491F901E255FF4FD491F901E6561F
:10046000FF4FC491CC23A9F0162F81110E94F801EF
:10047000EC2FF0E0EE0FFF1FEE58FF4FA591B49167
:100480008FB7F894EC91111108C0D095DE23DC935E
:100490008FBFDF91CF911F910895DE2BF8CFCF93BF
:1004A000DF9390E0FC01E255FF4F249186569F4F69
:1004B000FC0184918823D1F090E0880F991FFC0102
:1004C000E859FF4FA591B491FC01EE58FF4FC5913B
:1004D000D49161110EC09FB7F8948C91E22FE095F2
:1004E0008E238C932881E223E8839FBFDF91CF91F5
:1004F00008958FB7F894EC91E22BEC938FBFF6CF71
:100500003FB7F8948091E6019091E701A091E8014E
:10051000B091E90126B5A89B05C02F3F19F00196BF
:10052000A11DB11D3FBFBA2FA92F982F8827BC014D
:10053000CD01620F711D811D911D42E0660F771F75
:10054000881F991F4A95D1F708958F929F92AF9275
:10055000BF92CF92DF92EF92FF924B015C010E941B
:1005600080026B017C010E9480026C197D098E095A
:100570009F09683E734081059105A8F321E0821A26
:100580009108A108B10888EEC80E83E0D81EE11CCE
:10059000F11C81149104A104B10429F7FF90EF909C
:1005A000DF90CF90BF90AF909F908F90089585ED92
:1005B0008093BC008091BC0084FDFCCF1092160299
:1005C00008952091B801260F3327331F21323105BA
:1005D000ECF420911602FC0190E080E0243069F0F8
:1005E00082E00895A091B8012191AC0148565E4F78
:1005F000A40FB52FB11D2C930196861798F3809107
:10060000B801680F6093B80180E0089581E0089513
:100610000895E091EF018091EE01E81730F4F0E0E9
:10062000E858FE4F808190E008958FEF9FEF089586
:100630009091EF018091EE012FEF3FEF981748F472
:10064000E92FF0E0E858FE4F208130E09F5F909363
:10065000EF01C90108958091EE019091EF01891B8E
:10066000990B0895CF92DF92EF92FF920F931F9311
:10067000CF93DF937C01CB018A01209117022223C3
:1006800089F0EB016B01C40ED51ECC15DD0569F0B8
:100690006991D701ED91FC910190F081E02DC701A6
:1006A0000995F3CF642F0E94E102C801DF91CF9139
:1006B0001F910F91FF90EF90DF90CF900895CF930F
:1006C000DF931F92CDB7DEB76983209117022223F3
:1006D000F9F020913A02203258F021E030E0FC019C
:1006E0003383228390E080E00F90DF91CF910895D3
:1006F00080911802E82FF0E0E75EFD4F998190832A
:100700008F5F8093180280933A0281E090E0ECCFF3
:1007100061E0CE0101960E94E102F7CF90E080E017
:100720000895FC0101900020E9F73197AF01481BC3
:10073000590BBC018BE392E00C94EB008F929F92DB
:10074000AF92BF920F931F93CF93DF93CDB7DEB7D6
:10075000A1970FB6F894DEBF0FBECDBF19A24230ED
:1007600008F44AE08E010F5D1F4F842E912CB12CAE
:10077000A12CA50194010E94E309E62FB901CA0149
:10078000EA30F4F4E05DD801EE938D01232B242BA5
:10079000252B79F790E080E0109719F0CD010E94A9
:1007A0009103A1960FB6F894DEBF0FBECDBFDF91C7
:1007B000CF911F910F91BF90AF909F908F90089510
:1007C000E95CE1CFCF92DF92EF92FF92CF93DF937C
:1007D0006B017C016DE28BE392E00E948B01EC01E6
:1007E00066277727CB016C197D098E099F094AE09E
:1007F0000E949E038C0F9D1FDF91CF91FF90EF9081
:10080000DF90CF9008951F920F920FB60F92112490
:100810002F933F934F935F936F937F938F939F9308
:10082000AF93BF93EF93FF938BE392E00E94690134
:10083000FF91EF91BF91AF919F918F917F916F91B8
:100840005F914F913F912F910F900FBE0F901F908E
:1008500018951F920F920FB60F9211242F938F931A
:100860009F93EF93FF93E0914B02F0914C028081B4
:10087000E0915102F091520282FD1BC09081809163
:1008800054028F5F8F7320915502821741F0E091DF
:100890005402F0E0E55CFD4F958F80935402FF9188
:1008A000EF919F918F912F910F900FBE0F901F90FE
:1008B00018958081F4CF1F920F920FB60F921124DA
:1008C0002F933F938F939F93AF93BF938091E201B8
:1008D0009091E301A091E401B091E5013091E10133
:1008E00023E0230F2D3758F50196A11DB11D20934C
:1008F000E1018093E2019093E301A093E401B093BE
:10090000E5018091E6019091E701A091E801B091A5
:10091000E9010196A11DB11D8093E6019093E701C5
:10092000A093E801B093E901BF91AF919F918F919E
:100930003F912F910F900FBE0F901F90189526E8B2
:10094000230F0296A11DB11DD2CF1F920F920FB699
:100950000F9211242F933F934F935F936F937F9345
:100960008F939F93AF93BF93EF93FF938091E00199
:100970008823D9F08091DF0191E0980F9093DF01F7
:10098000811113C060E08AE00E94210260E08CE0E7
:100990000E9421021092E0018091DD019091DE0120
:1009A00001969093DE018093DD018091DF01883014
:1009B00010F01092DF01FF91EF91BF91AF919F91E5
:1009C0008F917F916F915F914F913F912F910F90F8
:1009D0000FBE0F901F9018951F920F920FB60F9297
:1009E00011242F933F934F935F936F937F938F9334
:1009F0009F93AF93BF93EF93FF938091B900887F4C
:100A0000803609F44AC0F0F5883209F4A7C018F519
:100A1000803109F49BC0B8F4882309F4F9C0883008
:100A200009F494C0FF91EF91BF91AF919F918F9185
:100A30007F916F915F914F913F912F910F900FBEDA
:100A40000F901F901895883109F488C0803251F7B3
:100A50008093140214C0803409F49DC040F48033A4
:100A6000B9F38833F9F68093140285ECB0C0803571
:100A700009F485C0883509F496C0883499F60E9437
:100A8000D702D0CF883909F48CC038F5883729F0DF
:100A900050F4883611F0803729F683E080931602EF
:100AA0001092DA0157C0883809F47BC0803919F0F8
:100AB000803809F0B7CF8091DA01803208F071C038
:100AC000E091DA0181E08E0F8093DA018091BB0022
:100AD000F0E0E654FE4F80833DC0803B39F0E0F407
:100AE000803A09F479C0883A09F09CCF84E0809379
:100AF00016021092B9011092B801E091EC01F09148
:100B0000ED0109958091B80181110FC081E08093BA
:100B1000B8011092980109C0803C09F4A6CF883C26
:100B200009F4A3CF883B09F07DCFE091B90181E0C2
:100B30008E0F8093B901F0E0E856FE4F80818093DC
:100B4000BB009091B9018091B80129C08091F10159
:100B50008093BB0085EC8093BC0064CF909113021E
:100B600080911202981758F5E091130281E08E0FE0
:100B700080931302F0E0EE50FE4F8081E9CFE091C8
:100B8000130281E08E0F809313028091BB00F0E08E
:100B9000EE50FE4F808390911302809112029817BD
:100BA000C8F285E8D8CFE091130281E08E0F8093E0
:100BB00013028091BB00F0E0EE50FE4F80838091E5
:100BC000150281115CCF81E08093F00184EA80936B
:100BD000BC001092160226CF85EC8093BC001092C8
:100BE00016028091DA01803230F4E091DA01F0E00F
:100BF000E654FE4F10826091DA0170E0E091EA0164
:100C0000F091EB018AEB91E009951092DA010ACF9D
:100C10001092140234CFCF92DF92EF92FF920F9393
:100C20001F93E82FF92F05C001501109210931093F
:100C300061F1908196239417B9F305C00150110911
:100C40002109310911F1908196239413F7CFC12C1A
:100C5000D12CE12CF12C0AC08FEFC81AD80AE80A6F
:100C6000F80A0C151D052E053F0579F080818623B5
:100C7000841791F36C2D7D2D8E2D9F2D1F910F913B
:100C8000FF90EF90DF90CF90089560E070E080E0FB
:100C900090E01F910F91FF90EF90DF90CF9008951B
:100CA000EBE3F2E01382128288EE93E0A0E0B0E082
:100CB00084839583A683B78324E031E03183208346
:100CC00025EC30E03587248724EC30E03787268711
:100CD00020EC30E0318B208B21EC30E0338B228B09
:100CE00022EC30E0358B248B26EC30E0378B268BE2
:100CF000118E128E138E148EE8EDF2E013821282A2
:100D000084839583A683B78386E191E09183808372
:100D10001092F1020895789484B5826084BD84B500
:100D2000816084BD85B5826085BD85B5816085BDE6
:100D300080916E00816080936E001092810080919E
:100D40008100826080938100809181008160809326
:100D50008100809180008160809380008091B1004B
:100D600084608093B1008091B00081608093B00076
:100D700080917A00846080937A0080917A0082600A
:100D800080937A0080917A00816080937A008091CC
:100D90007A00806880937A001092C100E0914B0243
:100DA000F0914C0282E08083E0914702F09148028A
:100DB0001082E0914902F0914A028FEC80831092F8
:100DC0005302E0914F02F091500286E08083E0915F
:100DD0004D02F0914E02808180618083E0914D024E
:100DE000F0914E02808188608083E0914D02F09105
:100DF0004E02808180688083E0914D02F0914E0226
:100E000080818F7D808361E083E00E944F0260E0FB
:100E100082E00E944F0284E291E00E9491038CE301
:100E200091E00E9491031092EF011092EE01109256
:100E3000180210923A021092160281E08093150275
:100E40001092F00161E082E10E94210261E083E101
:100E50000E9421028091B9008E7F8093B900809119
:100E6000B9008D7F8093B90088E48093B80085E451
:100E70008093BC0089EE90E09093ED018093EC01AB
:100E80008AEE90E09093EB018093EA0170E9872E5F
:100E900099249394A12CB12CE3E26E2E712CF4E9E9
:100EA000CF2ED12CE12CF12C8091F102882309F076
:100EB000F894EBEBF0E0C491E7EAF0E08491E82FDE
:100EC000F0E0EE0FFF1FE057FF4F0591149161E036
:100ED0008DE00E944F0260E08DE00E94210262E1FD
:100EE00070E080E090E00E94A50261E08DE00E9449
:100EF000210260E08DE00E944F0280E293E0F80161
:100F000020812C2309F4CCC00197C9F78091F1020C
:100F100081111BC16091EC026F776093EC02C0916C
:100F2000EE02CF77C093EE0270E090E080E00E9486
:100F300055096093E4027093E5028093E602909372
:100F4000E7022C2E312C512C412CC201B1010E9400
:100F500055096093E8027093E9028093EA02909346
:100F6000EB028FE391E00E9491034AE0C201B101DC
:100F70000E949E0385E591E00E9491038CE391E03D
:100F80000E9491038CE391E00E94910360E083E072
:100F90000E94210283E090E00197F1F761E083E095
:100FA0000E942102C3010197F1F760E083E00E94F3
:100FB0002102E0EBF0E06491ECE9F0E08491E82FAD
:100FC000F0E0EE0FFF1FE057FF4F8591949100E492
:100FD00012E42FE030E0462F0E940B0661157105E8
:100FE0008105910529F06F5F7F4F8F4F9F4F9F7055
:100FF000A70196010E94050ACA01B9010E9457097A
:1010000021EE3AE74DE152E40E94AD080E941F092B
:101010001B012C018DE591E00E94910357FE97C0C2
:10102000C201B1010E94E20380E791E00E949103B6
:101030008CE391E00E949103D1E0D093170289E004
:10104000809339021092180210923A026C2F88EDA8
:1010500092E00E945F030E948C00D09317028CE004
:10106000809339021092180210923A02622D88ED94
:1010700092E00E945F030E948C0068EE73E080E0C3
:1010800090E00E94A50280E090E0892B09F40CCF4B
:101090000E945501882309F407CF0E94000004CF65
:1010A00080E991E0F80120812C2319F40197D1F710
:1010B0002DCF80E991E0F80120812C2389F101975F
:1010C000D1F724CF4A2FDD2309F420CFF801A081E6
:1010D000AC2319F5442309F1D83279F58217930727
:1010E00008F49C01C501B401621B730B81099109CD
:1010F00042E095958795779567954A95D1F74694FF
:1011000049F4E52DF0E0EC51FD4FB0875394B0E089
:1011100090E8492ED15080E991E0019799F6F6CEFA
:10112000512CB0E050E8452E70E060E080E991E09D
:1011300020E931E040E0D8E2C9CFA901461B570BB6
:1011400048175907E0F2B429DACF7894E3CE4AE0A1
:10115000C201B1010E949E0367CF0E94C1080C9496
:10116000A9090E94A20958F00E949B0940F029F4A5
:101170005F3F29F00C94920951110C94DD090C94F5
:1011800098090E94BA0968F39923B1F3552391F3A2
:10119000951B550BBB27AA2762177307840738F0E6
:1011A0009F5F5F4F220F331F441FAA1FA9F335D043
:1011B0000E2E3AF0E0E832D091505040E695001CF7
:1011C000CAF72BD0FE2F29D0660F771F881FBB1FB1
:1011D000261737074807AB07B0E809F0BB0B802D8F
:1011E000BF01FF2793585F4F3AF09E3F510578F0BB
:1011F0000C9492090C94DD095F3FE4F3983ED4F31C
:10120000869577956795B795F7959F5FC9F7880F8E
:10121000911D9695879597F90895E1E0660F771FE0
:10122000881FBB1F621773078407BA0720F0621B71
:10123000730B840BBA0BEE1F88F7E09508950E949C
:1012400026096894B1110C94DD0908950E94C20921
:1012500088F09F5798F0B92F9927B751B0F0E1F077
:10126000660F771F881F991F1AF0BA95C9F714C027
:10127000B13091F00E94DC09B1E008950C94DC09D2
:10128000672F782F8827B85F39F0B93FCCF3869560
:1012900077956795B395D9F73EF4909580957095BD
:1012A00061957F4F8F4F9F4F0895E89409C097FB3A
:1012B0003EF490958095709561957F4F8F4F9F4F2D
:1012C0009923A9F0F92F96E9BB279395F695879571
:1012D00077956795B795F111F8CFFAF4BB0F11F434
:1012E00060FF1BC06F5F7F4F8F4F9F4F16C08823DB
:1012F00011F096E911C0772321F09EE8872F762F11
:1013000005C0662371F096E8862F70E060E02AF051
:101310009A95660F771F881FDAF7880F969587953D
:1013200097F9089597F99F6780E870E060E0089565
:101330009FEF80EC089500240A94161617061806ED
:101340000906089500240A941216130614060506C9
:101350000895092E0394000C11F4882352F0BB0F5A
:1013600040F4BF2B11F460FF04C06F5F7F4F8F4FBD
:101370009F4F089557FD9058440F551F59F05F3FF8
:1013800071F04795880F97FB991F61F09F3F79F0A7
:1013900087950895121613061406551FF2CF469529
:1013A000F1DF08C0161617061806991FF1CF8695AB
:1013B0007105610508940895E894BB27662777278F
:1013C000CB0197F90895A1E21A2EAA1BBB1BFD01C0
:1013D0000DC0AA1FBB1FEE1FFF1FA217B307E40714
:1013E000F50720F0A21BB30BE40BF50B661F771F6C
:1013F000881F991F1A9469F760957095809590954C
:101400009B01AC01BD01CF010895052E97FB1EF491
:1014100000940E941C0A57FD07D00E94E30907FCB4
:1014200003D04EF40C941C0A5095409530952195AC
:101430003F4F4F4F5F4F0895909580957095619500
:101440007F4F8F4F9F4F0895EE0FFF1F0590F49130
:08145000E02D0994F894FFCF90
:10145800000000008B01EB001801D80149012701A9
:101468003B01000000005F0332038E0308032B03D7
:10147800180309032A2A2A2A4E6F64652031204D51
:101488006F6E69746F722A2A2A2A2A000D0A00547C
:10149800656D7065726174757265204D65617375EF
:1014A80072653A200043656C63697573004469731B
:1014B80074616E6365204D6561737572653A2000CD
:0814C800204D657465722000DF
:107E0000112484B714BE81FFF0D085E080938100F7
:107E100082E08093C00088E18093C10086E0809377
:107E2000C20080E18093C4008EE0C9D0259A86E02C
:107E300020E33CEF91E0309385002093840096BBD3
:107E4000B09BFECF1D9AA8958150A9F7CC24DD24C4
:107E500088248394B5E0AB2EA1E19A2EF3E0BF2EE7
:107E6000A2D0813461F49FD0082FAFD0023811F036
:107E7000013811F484E001C083E08DD089C08234E0
:107E800011F484E103C0853419F485E0A6D080C0E4
:107E9000853579F488D0E82EFF2485D0082F10E0AE
:107EA000102F00270E291F29000F111F8ED06801E7
:107EB0006FC0863521F484E090D080E0DECF843638
:107EC00009F040C070D06FD0082F6DD080E0C81688
:107ED00080E7D80618F4F601B7BEE895C0E0D1E017
:107EE00062D089930C17E1F7F0E0CF16F0E7DF06D8
:107EF00018F0F601B7BEE89568D007B600FCFDCFD4
:107F0000A601A0E0B1E02C9130E011968C91119780
:107F100090E0982F8827822B932B1296FA010C0160
:107F200087BEE89511244E5F5F4FF1E0A038BF0790
:107F300051F7F601A7BEE89507B600FCFDCF97BE46
:107F4000E89526C08437B1F42ED02DD0F82E2BD052
:107F50003CD0F601EF2C8F010F5F1F4F84911BD097
:107F6000EA94F801C1F70894C11CD11CFA94CF0C13
:107F7000D11C0EC0853739F428D08EE10CD085E9AC
:107F80000AD08FE07ACF813511F488E018D01DD067
:107F900080E101D065CF982F8091C00085FFFCCF94
:107FA0009093C60008958091C00087FFFCCF809118
:107FB000C00084FD01C0A8958091C6000895E0E648
:107FC000F0E098E1908380830895EDDF803219F02E
:107FD00088E0F5DFFFCF84E1DECF1F93182FE3DFCA
:107FE0001150E9F7F2DF1F91089580E0E8DFEE27F6
:047FF000FF270994CA
:027FFE00040479
:0400000300007E007B
:00000001FF
